:020000040000FA
:100000000C9463000C9440040C9419040C948B0021
:100010000C948B000C948B000C948B000C948B0034
:100020000C948B000C948B000C948B000C948B0024
:100030000C948B000C948B000C948B000C948B0014
:100040000C94CF030C948B000C948D040C946704D7
:100050000C948B000C948B000C948B000C948B00F4
:100060000C948B000C948B000000000024002700EF
:100070002A0000000000250028002B0000000000DE
:1000800023002600290004040404040404040202DA
:100090000202020203030303030301020408102007
:1000A0004080010204081020010204081020000012
:1000B0000008000201000003040700000000000027
:1000C0000000BF04FA0B11241FBECFEFD8E0DEBF43
:1000D000CDBF11E0A0E0B1E0E4E2FFE102C0059095
:1000E0000D92A833B107D9F721E0A8E3B1E001C030
:1000F0001D92AE3FB207E1F710E0C2E6D0E004C0C7
:100100002197FE010E945A0EC136D107C9F70E94FD
:10011000FC040C94850F0C940000833081F028F4CB
:10012000813099F08230A9F008958730A9F08830A5
:10013000C9F08430B1F4809180008F7D03C080913C
:1001400080008F7780938000089584B58F7784BD79
:10015000089584B58F7DFBCF8091B0008F77809319
:10016000B00008958091B0008F7DF9CFCF93DF93D9
:10017000282F30E0F901E255FF4F8491F901E6564E
:10018000FF4FD491F901EA57FF4FC491CC23A1F05E
:1001900081110E948D00EC2FF0E0EE0FFF1FE4585C
:1001A000FF4FA591B491EC91ED2381E090E009F42B
:1001B00080E0DF91CF91089580E090E0FACF1F9327
:1001C000CF93DF93282F30E0F901E255FF4F849160
:1001D000F901E656FF4FD491F901EA57FF4FC49158
:1001E000CC23A9F0162F81110E948D00EC2FF0E096
:1001F000EE0FFF1FEE58FF4FA591B4918FB7F89403
:10020000EC91111108C0D095DE23DC938FBFDF91F4
:10021000CF911F910895DE2BF8CF3FB7F8948091CE
:100220003D0190913E01A0913F01B091400126B562
:10023000A89B05C02F3F19F00196A11DB11D3FBF1E
:10024000BA2FA92F982F8827BC01CD01620F711DED
:10025000811D911D42E0660F771F881F991F4A95E7
:10026000D1F70895CF93DF932091EF013091F00102
:1002700044E0849FC0011124280F391FF9014081F7
:10028000518162817381452B462B472B61F4C091CC
:10029000EF01D091F001C80FD91F0E940D016883B2
:1002A00079838A839B83DF91CF910895CF93DF93E6
:1002B0002091EF013091F00144E0849FC0011124AE
:1002C000280F391FF9014081518162817381452BCB
:1002D000462B472BD1F0E091F801F091F901E80F9E
:1002E000F91F4081518162817381452B462B472B39
:1002F00061F4C091F801D091F901C80FD91F0E9493
:100300000D01688379838A839B83DF91CF91089560
:1003100080E00C94320181E00C94320182E00C9474
:10032000320183E00C94320184E00C94320185E0C8
:100330000C94320186E00C94320187E00C94320177
:1003400088E00C94320189E00C94320180E00C9436
:10035000560181E00C94560182E00C94560183E032
:100360000C94560184E00C94560185E00C945601DF
:1003700086E00C94560187E00C94560188E00C94BA
:10038000560189E00C945601E82FF0E0882359F0DB
:10039000813059F0EE0FFF1FE050FF4F87ED91E0E5
:1003A000918380830895E898F5CFE998F3CF089575
:1003B0008230E8F4E82FF0E0EE0FFF1FE050FF4F2F
:1003C00071836083813041F0809169008C7F482B7C
:1003D00040936900E89A089580916900837F440FF3
:1003E000551F440F551F482B40936900E99A089503
:1003F000AF92BF92CF92DF92EF92FF920F931F9333
:10040000CF93DF936C017B018B01040F151FEB0170
:100410005E01AE18BF08C017D10759F06991D60127
:10042000ED91FC910190F081E02DC6010995892B99
:1004300079F7C501DF91CF911F910F91FF90EF9058
:10044000DF90CF90BF90AF900895FC01538D448D05
:10045000252F30E0842F90E0821B930B541710F06F
:10046000CF96089501970895FC01918D828D98177C
:1004700061F0A28DAE0FBF2FB11D5D968C91928D54
:100480009F5F9F73928F90E008958FEF9FEF089585
:10049000FC01918D828D981731F0828DE80FF11D4E
:1004A000858D90E008958FEF9FEF0895FC01918D69
:1004B000228D892F90E0805C9F4F821B91098F7362
:1004C0009927089581E491E00E94560221E0892B4A
:1004D00009F420E0822F089580E090E0892B29F034
:1004E0000E94620281110C9400000895FC01A48D09
:1004F000A80FB92FB11DA35ABF4F2C91848D90E046
:1005000001968F739927848FA689B7892C93A08928
:10051000B1898C91837080648C93938D848D9813B2
:1005200006C00288F389E02D80818F7D8083089545
:10053000EF92FF920F931F93CF93DF93EC0181E033
:10054000888F9B8D8C8D98131AC0E889F9898081DA
:1005500085FF15C09FB7F894EE89FF896083E8890D
:10056000F98980818370806480839FBF81E090E0FF
:10057000DF91CF911F910F91FF90EF900895F62E8C
:100580000B8D10E00F5F1F4F0F731127E02E8C8D26
:100590008E110CC00FB607FCFACFE889F98980816B
:1005A00085FFF5CFCE010E947602F1CFEB8DEC0FE7
:1005B000FD2FF11DE35AFF4FF0829FB7F8940B8F88
:1005C000EA89FB8980818062CFCFCF93DF93EC01F2
:1005D000888D8823B9F0AA89BB89E889F9898C912B
:1005E00085FD03C0808186FD0DC00FB607FCF7CFE7
:1005F0008C9185FFF2CF808185FFEDCFCE010E94E7
:100600007602E9CFDF91CF9108958091E201909138
:10061000E301009711F00E94FC0E8091E40190919B
:10062000E501009711F00E94FC0E8091EF0190917E
:10063000F001892B41F08091EF019091F00100973A
:1006400011F00E94FC0E8091F8019091F901892B24
:1006500041F08091F8019091F901009711F00E940A
:10066000FC0E8091F6019091F701892B41F0809169
:10067000F6019091F701009711F00E94FC0E809115
:10068000F4019091F501892B41F08091F401909152
:10069000F501009711F00E94FC0E8091F2019091FB
:1006A000F301892B41F08091F2019091F3010097C1
:1006B00011F00E94FC0E1092E3011092E2011092E0
:1006C000E5011092E4011092F0011092EF011092F6
:1006D000F9011092F8011092F7011092F6011092B0
:1006E000F5011092F4011092F3011092F2010895B5
:1006F000FC0101900020E9F73197AF01481B590B2D
:10070000BC0181E491E00C94F8018F929F92AF922A
:10071000BF920F931F93CF93DF93CDB7DEB7A1970F
:100720000FB6F894DEBF0FBECDBF19A2423008F459
:100730004AE08E010F5D1F4F842E912CB12CA12C0D
:10074000A50194010E94380EE62FB901CA01EA30D2
:10075000F4F4E05DD801EE938D01232B242B252B9F
:1007600079F790E080E0109719F0CD010E947803AE
:10077000A1960FB6F894DEBF0FBECDBFDF91CF912B
:100780001F910F91BF90AF909F908F900895E95C5B
:10079000E1CF009711F481E090E00C94600E1F927D
:1007A0000F920FB60F9211242F933F938F939F9325
:1007B000AF93BF938091390190913A01A0913B0191
:1007C000B0913C013091380123E0230F2D3758F5CB
:1007D0000196A11DB11D209338018093390190939A
:1007E0003A01A0933B01B0933C0180913D0190916F
:1007F0003E01A0913F01B09140010196A11DB11DA4
:1008000080933D0190933E01A0933F01B09340013E
:10081000BF91AF919F918F913F912F910F900FBEFC
:100820000F901F90189526E8230F0296A11DB11D69
:10083000D2CF1F920F920FB60F9211242F933F9396
:100840004F935F936F937F938F939F93AF93BF93D8
:10085000EF93FF93E0910201F09103010995FF915D
:10086000EF91BF91AF919F918F917F916F915F9128
:100870004F913F912F910F900FBE0F901F901895A1
:100880001F920F920FB60F9211242F933F934F9305
:100890005F936F937F938F939F93AF93BF93EF93E8
:1008A000FF93E0910001F09101010995FF91EF9113
:1008B000BF91AF919F918F917F916F915F914F9178
:1008C0003F912F910F900FBE0F901F9018951F9280
:1008D0000F920FB60F9211242F933F934F935F9374
:1008E0006F937F938F939F93AF93BF93EF93FF93F8
:1008F00081E491E00E947602FF91EF91BF91AF9168
:100900009F918F917F916F915F914F913F912F9127
:100910000F900FBE0F901F9018951F920F920FB659
:100920000F9211242F938F939F93EF93FF93E09156
:100930005101F09152018081E0915701F0915801ED
:1009400082FD1BC0908180915A018F5F8F7320912F
:100950005B01821741F0E0915A01F0E0EF5BFE4F3E
:10096000958F80935A01FF91EF919F918F912F91D5
:100970000F900FBE0F901F9018958081F4CFE1E487
:10098000F1E01382128288EE93E0A0E0B0E084836D
:100990009583A683B7838EE091E09183808385EC75
:1009A00090E09587848784EC90E09787868780EC39
:1009B00090E0918B808B81EC90E0938B828B82EC2A
:1009C00090E0958B848B86EC90E0978B868B118ED4
:1009D000128E138E148EEEEDF1E08CEB94E7AAE903
:1009E000B1E480839183A283B3838AE090E095870A
:1009F0008487978786870895CF93DF93CDB7DEB737
:100A000065970FB6F894DEBF0FBECDBF789484B55E
:100A1000826084BD84B5816084BD85B5826085BDFA
:100A200085B5816085BD80916E00816080936E0088
:100A3000109281008091810082608093810080917A
:100A4000810081608093810080918000816080932B
:100A500080008091B10084608093B1008091B000EB
:100A600081608093B00080917A00846080937A00E6
:100A700080917A00826080937A0080917A00816010
:100A800080937A0080917A00806880937A00109237
:100A9000C100E0915101F091520182E08083E09128
:100AA0004D01F0914E011082E0914F01F091500103
:100AB0008FEC808310925901E0915501F09156011D
:100AC00086E08083E0915301F09154018081806140
:100AD0008083E0915301F09154018081886080838C
:100AE000E0915301F0915401808180688083E0910E
:100AF0005301F091540180818F7D808381E090E0EB
:100B00000E94600E9B838A838BE0AA81BB818C93B9
:100B10008091F101813011F00E9405038CE08093F7
:100B2000EE01E6EAF0E02491E2E9F0E08491882326
:100B300099F090E0880F991FFC01E859FF4FA591AB
:100B4000B491FC01EE58FF4F859194918FB7F894C2
:100B5000EC91E22BEC938FBF80EA96E8A1E0B0E045
:100B60008093E6019093E701A093E801B093E90137
:100B70008AE090E09093EB018093EA019093ED017D
:100B80008093EC0181E08093F1018091E2019091EA
:100B9000E301892B41F484E090E00E94C903909323
:100BA000E3018093E2018091E4019091E501892BBA
:100BB00041F484E090E00E94C9039093E5018093A2
:100BC000E4018091EF019091F001892B41F484E0E0
:100BD00090E00E94C9039093F0018093EF0180910F
:100BE000F8019091F901892B41F484E090E00E9492
:100BF000C9039093F9018093F8018091F2019091DB
:100C0000F301892B41F482E090E00E94C9039093A4
:100C1000F3018093F2018091F4019091F501892B09
:100C200041F482E090E00E94C9039093F501809323
:100C3000F4018091F6019091F701892B41F482E053
:100C400090E00E94C9039093F7018093F60160E061
:100C50004FEF5FEF8091F101681708F094C4A09105
:100C6000EF01B091F001262F30E0C901880F991FE4
:100C7000880F991FA80FB91F1D921D921D921C92DB
:100C80001397E091F801F091F901E80FF91F108234
:100C9000118212821382EA81FB81E20FF31F7081BD
:100CA000220F331F872F90E0723009F440C0733059
:100CB00009F458C0E091F201F091F301E20FF31F43
:100CC00051834083E091F401F091F501E20FF31FAD
:100CD00051834083E091F601F091F701E20FF31F99
:100CE00091838083FC01E656FF4F24918A579F4FE2
:100CF000FC0184918823C9F090E0880F991FFC01C2
:100D0000E859FF4FA591B491FC01EE58FF4F0591B2
:100D100014919FB7F8948C91E22FE0958E238C93D9
:100D2000D8018C91E823EC939FBF6F5F93CFB0E025
:100D3000A0E0E091F201F091F301E20FF31F1182C4
:100D40001082E091F401F091F501E20FF31FB183FD
:100D5000A083E091F601F091F701E20FF31F5183B8
:100D60004083C0CFA1E0B0E0E4CFDC018D919C9145
:100D700043E050E068E871E00E94D801F981FF5F2C
:100D8000F98363C4FC018081918143E050E06BE80A
:100D900071E0F2CFDC018D919C9143E050E06EE870
:100DA00071E0EACFFC018081918143E050E061E98C
:100DB00071E0E2CFDC018D919C9143E050E064E969
:100DC00071E0DACFFC018081918143E050E067E976
:100DD00071E0D2CFDC018D919C9143E050E06AE953
:100DE00071E0CACFFC018081918143E050E06DE960
:100DF00071E0C2CFDC018D919C9143E050E060EA4C
:100E000071E0BACFFC018081918143E050E063EA58
:100E100071E0B2CF0E940D014B015C01AC019B015E
:100E20002419350946095709288739874A875B8776
:100E3000C12CDD24D39431E039838091F101C816AF
:100E400008F05BC24091E6015091E7016091E80132
:100E50007091E9014A8B5B8B6C8B7D8B54E0C59E56
:100E600080011124688579858A859B852A893B893B
:100E70004C895D896217730784079507C0F1E0917B
:100E8000EF01F091F001E00FF11F4081518162818B
:100E90007381452B462B472B41F1E091F801F091EE
:100EA000F901E00FF11F4081518162817381452B6F
:100EB000462B472BD1F4E091EF01F091F001E00FC8
:100EC000F11F4081518162817381D501C401841B6E
:100ED000950BA60BB70B21E04A895B896C897D894C
:100EE00084179507A607B70718F020E001C021E096
:100EF000D2228091F6019091F7016C2D70E0660F7F
:100F0000771F7D876C87860F971FDC018D919C91E1
:100F100097FD27C0E091EF01F091F001E00FF11F84
:100F200080819181A281B381892B8A2B8B2BC9F47B
:100F3000E091F601F091F701E60FF71F80819181B2
:100F40000E94B600019769F4E090EF01F090F00183
:100F5000E00EF11E0E940D01F70160837183828310
:100F60009383E091EF01F091F001E00FF11F808198
:100F70009181A281B381892B8A2B8B2B11F4D11003
:100F800082C0E091F401F091F5012C853D85E20FDE
:100F9000F31F8081918197FD30C0E091F201F091C3
:100FA000F301E20FF31F80819181019711F0D110BD
:100FB00024C0E091F201F091F3014C855D85E40FCE
:100FC000F51F80819181019751F4E091F201F09138
:100FD000F301E40FF51F62E070E071836083E0913C
:100FE000F401F091F5018C859D85E80FF91F808152
:100FF0009181823010F40E94C401E091F401F091DB
:10100000F501AC85BD85EA0FFB1F8081918197FDBD
:101010004CC0E091EF01F091F001E00FF11F8081F1
:101020009181A281B381892B8A2B8B2B09F43DC03E
:10103000E091F201F091F3012C853D85E20FF31F61
:1010400080819181029789F5DD2079F1E091F201AB
:10105000F091F301E20FF31F43E050E0518340832E
:1010600059E05C1510F1EC2DF0E0E75CF74F0C94C3
:101070005A0E4508F40803091209210930093F09ED
:101080004E095D096C091982B8CFE091F401F09125
:10109000F5016C857D85E60FF71F8081918142E027
:1010A00050E066EA71E00E94D801E091F601F0910B
:1010B000F7016C857D85E60FF71F8081918197FD93
:1010C00036C0E091EF01F091F001E00FF11F808157
:1010D0009181A281B381892B8A2B8B2B41F1E091E5
:1010E000F801F091F901E00FF11F80819181A28157
:1010F000B381892B8A2B8B2BD1F4E091F601F091EF
:10110000F701E60FF71F808191810E94B600892BBD
:1011100071F4E090F801F090F901E00EF11E0E94E8
:101120000D01D7016D937D938D939C931397E0915F
:10113000EF01F091F001E00FF11F80819181A28118
:10114000B381892B8A2B8B2B79F08091F8019091B8
:10115000F901080F191FF80180819181A281B381E3
:10116000892B8A2B8B2B11F4D110C5C0E091F4018F
:10117000F091F5012C853D85E20FF31F808191816F
:1011800097FD30C0E091F201F091F301E20FF31FFF
:1011900080819181039711F0D11024C0E091F20178
:1011A000F091F3014C855D85E40FF51F80819181FD
:1011B000039751F4E091F201F091F301E40FF51F70
:1011C00064E070E0718360838091F4019091F50197
:1011D000AC85BD85A80FB91F8D919C91823010F40C
:1011E0000E94C401C39429CEE091F401F091F5016D
:1011F0008C859D85E80FF91F8081918142E050E048
:1012000069EA71E050CFE091F401F091F501AC850D
:10121000BD85EA0FFB1F8081918142E050E06CEABE
:1012200071E041CFE091F401F091F5012C853D850D
:10123000E20FF31F8081918142E050E06FEA71E09C
:1012400032CFE091F401F091F5014C855D85E40F1A
:10125000F51F8081918142E050E062EB71E023CF85
:10126000E091F401F091F5016C857D85E60FF71FA3
:101270008081918142E050E065EB71E014CFE09114
:10128000F401F091F5018C859D85E80FF91F8081AF
:10129000918142E050E068EB71E005CFE091F4010C
:1012A000F091F501AC85BD85EA0FFB1F808191812E
:1012B00042E050E06BEB71E0F6CEE091F401F0918A
:1012C000F5012C853D85E20FF31F8081918142E07D
:1012D00050E06EEB71E0E7CEE091F401F091F501A2
:1012E0004C855D85E40FF51F8081918142E050E0DF
:1012F00061EC71E0D8CE198275CFDD2021F0B98183
:10130000BB2309F487CD20E08091F101281708F074
:1013100092C0E091F401F091F501822F90E0BC01C0
:10132000660F771FE60FF71F4081518157FD09C0F7
:101330004091F2015091F301460F571FFA011182BB
:1013400010824091EF015091F001880F991F880F92
:10135000991F480F591FDA014D915D916D917C9154
:10136000EE81FF81E80FF91F452B462B472B71F0CB
:10137000A091F801B091F901A80FB91F4D915D91AD
:101380006D917C91452B462B472BA1F4A091EF0149
:10139000B091F001A80FB91F4D915D916D917C91B5
:1013A000452B462B472B09F041C04EEF5FEF6FEF07
:1013B0007FEF20C0A091F801B091F901A80FB91FEB
:1013C0004D915D916D917C91A091EF01B091F001F3
:1013D000A80FB91FCD90DD90ED90FC904C195D09E0
:1013E0006E097F0914161506160617061CF04FEF36
:1013F0005FEFBA014083518362837383E091EF0111
:10140000F091F001E80FF91F10821182128213820D
:101410004091F8015091F901840F951FDC011D9254
:101420001D921D921C9213972F5F6ECF4DEF5FEFB1
:101430006FEF7FEFDFCFE090E201F090E3011982E0
:101440008091F101B981B81708F043C0E4E0BE9F74
:1014500080011124F701E00FF11F60817181828109
:1014600093810E94110D20E030E040E05FE30E9494
:10147000C60D2A813B814C815D810E94C60D4B01C6
:101480005C01020D131D20E030E040E85FE30E94A4
:10149000690C87FD0AC020E030E048EC53E4C50148
:1014A000B4010E94C10D181674F420E030E040E849
:1014B0005FEBD8012D933D934D935C931397F98186
:1014C000FF5FF983BDCFF80180829182A282B3824F
:1014D000F6CF2091E4013091E5013B832A838CE132
:1014E00091E00E947803AA81BB81CD90DD90ED90C0
:1014F000FC90A7019601C701B6010E94330E882314
:1015000009F4E6C080E291E00E9478038CE291E069
:101510000E94780380E391E00E94780383E391E0E6
:101520000E94780380E391E00E9478030E940D01FD
:101530006B017C018AEF882E912CA12CB12C0E948A
:101540000D016C197D098E099F09683E7340810564
:101550009105A8F3B1E08B1A9108A108B108E8EE53
:10156000CE0EE3E0DE1EE11CF11C81149104A10407
:10157000B10429F780E090E0892B29F00E946202F3
:1015800081110E9400002090E4013090E50121EDDE
:1015900032E24BE15FE36091DE017091DF01809107
:1015A000E0019091E1010E94C60D26E636EA45EA87
:1015B00053E40E94FD0B20E030E04AE754E40E942F
:1015C0006E0C20E030E040E251E40E946E0C6A8331
:1015D0007B838C839D83E091E201F091E301FF83A3
:1015E000EE830E940D012B013C018091EE0160E031
:1015F0000E94DF008BE090E00197F1F78091EE010F
:1016000061E00E94DF008091EA019091EB0182305D
:10161000910538F0880F991F880F991F059701973A
:10162000F1F78091EE0160E00E94DF008091EC0113
:101630009091ED018230910538F0880F991F880F45
:10164000991F05970197F1F719828091F101F981AE
:10165000F81708F0DFCBA091F401B091F501EF2F5E
:10166000F0E0CF01880F991FA80FB91F2D913C9171
:1016700037FD84CBA091F201B091F301A80FB91FFF
:101680002D913C91232B09F079CBA091F201B091DF
:10169000F301A80FB91F41E050E011965C934E93FF
:1016A00059815A3008F06ACBE25AF44F2091F40184
:1016B0003091F501820F931F0C945A0EB506C206A5
:1016C000CA06D206DA06E206EA06F206FA060207B9
:1016D00046015701E894B7F82FEF3FEF4FE75FE778
:1016E000C501B4010E94330E81110DC02FEF3FEFF1
:1016F0004FE75FE7C501B4010E94690C18161CF49E
:1017000084E291E001CF2FEF3FEF4FE75FE4C701A5
:10171000B6010E94C10D18161CF488E291E0F4CEC7
:101720002FEF3FEF4FE75FECC701B6010E94690C56
:1017300087FDF3CF20E030E0A901C701B6010E9488
:10174000690C87FF09C06DE281E491E00E94980274
:10175000F7FAF094F7F8F0942AE037ED43EA5BE308
:10176000C701B6010E94FD0B4B015C010E94E00C19
:101770006B017C010E940F0D9B01AC01C501B401FE
:101780000E94FC0B4B015C014AE0C701B6010E94BC
:1017900085036EE281E491E00E94980220E030E04F
:1017A00040E251E4C501B4010E94C60D4B015C0149
:1017B0000E94E00C6B01F12CE12C4AE0C701B6015C
:1017C0000E948503C701B6010E940F0D9B01AC0169
:1017D000C501B4010E94FC0B20E030E040E251E47E
:1017E0000E94C60D0E94E00C90E080E04AE00E945A
:1017F00085038CCE0C9405035058BB27AA270E9462
:10180000140C0C94870D0E94790D38F00E94800D05
:1018100020F039F49F3F19F426F40C94760D0EF461
:10182000E095E7FB0C94700DE92F0E94980D58F39A
:10183000BA17620773078407950720F079F4A6F5B5
:101840000C94BA0D0EF4E0950B2EBA2FA02D0B01BF
:10185000B90190010C01CA01A0011124FF27591BF5
:1018600099F0593F50F4503E68F11A16F040A22FFB
:10187000232F342F4427585FF3CF4695379527956C
:10188000A795F0405395C9F77EF41F16BA0B620B6B
:10189000730B840BBAF09150A1F0FF0FBB1F661FB2
:1018A000771F881FC2F70EC0BA0F621F731F841FF5
:1018B00048F4879577956795B795F7959E3F08F01B
:1018C000B0CF9395880F08F09927EE0F97958795DD
:1018D00008950E944C0D08F481E008950E94820C46
:1018E0000C94870D0E94800D58F00E94790D40F0F5
:1018F00029F45F3F29F00C94700D51110C94BB0D2D
:101900000C94760D0E94980D68F39923B1F355233A
:1019100091F3951B550BBB27AA2762177307840702
:1019200038F09F5F5F4F220F331F441FAA1FA9F398
:1019300035D00E2E3AF0E0E832D091505040E69586
:10194000001CCAF72BD0FE2F29D0660F771F881FE7
:10195000BB1F261737074807AB07B0E809F0BB0BDA
:10196000802DBF01FF2793585F4F3AF09E3F5105EE
:1019700078F00C94700D0C94BB0D5F3FE4F3983E2F
:10198000D4F3869577956795B795F7959F5FC9F7D7
:10199000880F911D9695879597F90895E1E0660F58
:1019A000771F881FBB1F621773078407BA0720F0D1
:1019B000621B730B840BBA0BEE1F88F7E09508953A
:1019C0000E94A00D88F09F5798F0B92F9927B75122
:1019D000B0F0E1F0660F771F881F991F1AF0BA95D3
:1019E000C9F714C0B13091F00E94BA0DB1E008956A
:1019F0000C94BA0D672F782F8827B85F39F0B93F5C
:101A0000CCF3869577956795B395D9F73EF4909585
:101A10008095709561957F4F8F4F9F4F0895E89403
:101A200009C097FB3EF490958095709561957F4F26
:101A30008F4F9F4F9923A9F0F92F96E9BB279395D4
:101A4000F695879577956795B795F111F8CFFAF4E4
:101A5000BB0F11F460FF1BC06F5F7F4F8F4F9F4F15
:101A600016C0882311F096E911C0772321F09EE873
:101A7000872F762F05C0662371F096E8862F70E0D9
:101A800060E02AF09A95660F771F881FDAF7880FB3
:101A90009695879597F90895990F0008550FAA0B09
:101AA000E0E8FEEF16161706E807F907C0F0121671
:101AB0001306E407F50798F0621B730B840B950B74
:101AC00039F40A2661F0232B242B252B21F40895C9
:101AD0000A2609F4A140A6958FEF811D811D089566
:101AE00097F99F6780E870E060E008959FEF80ECD1
:101AF000089500240A941616170618060906089574
:101B000000240A9412161306140605060895092ED9
:101B10000394000C11F4882352F0BB0F40F4BF2B48
:101B200011F460FF04C06F5F7F4F8F4F9F4F089588
:101B300057FD9058440F551F59F05F3F71F047957E
:101B4000880F97FB991F61F09F3F79F08795089563
:101B5000121613061406551FF2CF4695F1DF08C082
:101B6000161617061806991FF1CF8695710561059F
:101B700008940895E894BB2766277727CB0197F947
:101B800008950E944C0D08F48FEF08950E94D90D1E
:101B90000C94870D0E94790D38F00E94800D20F082
:101BA000952311F00C94700D0C94760D11240C9467
:101BB000BB0D0E94980D70F3959FC1F3950F50E0F7
:101BC000551F629FF001729FBB27F00DB11D639FEF
:101BD000AA27F00DB11DAA1F649F6627B00DA11D95
:101BE000661F829F2227B00DA11D621F739FB00D3B
:101BF000A11D621F839FA00D611D221F749F3327AB
:101C0000A00D611D231F849F600D211D822F762F43
:101C10006A2F11249F5750409AF0F1F088234AF020
:101C2000EE0FFF1FBB1F661F771F881F915050408C
:101C3000A9F79E3F510580F00C94700D0C94BB0DDC
:101C40005F3FE4F3983ED4F3869577956795B79513
:101C5000F795E7959F5FC1F7FE2B880F911D96952D
:101C6000879597F908950E944C0D880B990B08955C
:101C7000A1E21A2EAA1BBB1BFD010DC0AA1FBB1F90
:101C8000EE1FFF1FA217B307E407F50720F0A21B02
:101C9000B30BE40BF50B661F771F881F991F1A946F
:101CA00069F760957095809590959B01AC01BD0199
:101CB000CF010895EE0FFF1F0590F491E02D0994D8
:101CC0000F931F93CF93DF938230910510F482E03E
:101CD00090E0E091FC01F091FD0130E020E0B0E007
:101CE000A0E0309799F42115310509F44AC0281B6A
:101CF000390B24303105D8F58A819B816115710536
:101D000089F1FB0193838283FE0111C040815181DF
:101D10000281138148175907E0F04817590799F4D1
:101D2000109761F012960C93129713961C933296AB
:101D3000CF01DF91CF911F910F9108950093FC0186
:101D40001093FD01F4CF2115310551F042175307CF
:101D500038F0A901DB019A01BD01DF01F801C1CF13
:101D6000EF01F9CF9093FD018093FC01CDCFFE01EF
:101D7000E20FF31F81939193225031093983288315
:101D8000D7CF2091FA013091FB01232B41F4209110
:101D90000601309107013093FB012093FA01209155
:101DA0000401309105012115310541F42DB73EB7ED
:101DB0004091080150910901241B350BE091FA0173
:101DC000F091FB01E217F307A0F42E1B3F0B28173D
:101DD000390778F0AC014E5F5F4F2417350748F0A4
:101DE0004E0F5F1F5093FB014093FA018193919333
:101DF0009FCFF0E0E0E09CCFCF93DF930097E9F036
:101E0000FC01329713821282A091FC01B091FD0176
:101E1000ED0130E020E01097A1F420813181820FA4
:101E2000931F2091FA013091FB012817390709F01F
:101E300061C0F093FB01E093FA01DF91CF91089527
:101E4000EA01CE17DF07E8F54A815B819E01411563
:101E50005105B1F7E901FB83EA8349915991C40F18
:101E6000D51FEC17FD0761F4808191810296840FE4
:101E7000951FE90199838883828193819B838A835B
:101E8000F0E0E0E012968D919C9113970097B9F5E0
:101E90002D913C911197CD010296820F931F2091B5
:101EA000FA013091FB012817390739F6309751F5BF
:101EB0001092FD011092FC01B093FB01A093FA0176
:101EC000BCCFD383C28340815181840F951FC81733
:101ED000D90761F44E5F5F4F88819981480F591F80
:101EE000518340838A819B819383828321153105AD
:101EF00009F0B0CFF093FD01E093FC019ECFFD010E
:101F0000DC01C0CF13821282D7CF10E0C2E6D0E04E
:101F100004C0FE010E945A0E2196C336D107C9F7AC
:101F2000F894FFCFD701D7010000FE018000000028
:101F300000009802F8012502E50256023402480228
:101F4000313A20006E616E00696E66006F76660041
:0C1F500020636D000D0A002D2D2D0000F7
:107E0000112484B714BE81FFF0D085E080938100F7
:107E100082E08093C00088E18093C10086E0809377
:107E2000C20080E18093C4008EE0C9D0259A86E02C
:107E300020E33CEF91E0309385002093840096BBD3
:107E4000B09BFECF1D9AA8958150A9F7CC24DD24C4
:107E500088248394B5E0AB2EA1E19A2EF3E0BF2EE7
:107E6000A2D0813461F49FD0082FAFD0023811F036
:107E7000013811F484E001C083E08DD089C08234E0
:107E800011F484E103C0853419F485E0A6D080C0E4
:107E9000853579F488D0E82EFF2485D0082F10E0AE
:107EA000102F00270E291F29000F111F8ED06801E7
:107EB0006FC0863521F484E090D080E0DECF843638
:107EC00009F040C070D06FD0082F6DD080E0C81688
:107ED00080E7D80618F4F601B7BEE895C0E0D1E017
:107EE00062D089930C17E1F7F0E0CF16F0E7DF06D8
:107EF00018F0F601B7BEE89568D007B600FCFDCFD4
:107F0000A601A0E0B1E02C9130E011968C91119780
:107F100090E0982F8827822B932B1296FA010C0160
:107F200087BEE89511244E5F5F4FF1E0A038BF0790
:107F300051F7F601A7BEE89507B600FCFDCF97BE46
:107F4000E89526C08437B1F42ED02DD0F82E2BD052
:107F50003CD0F601EF2C8F010F5F1F4F84911BD097
:107F6000EA94F801C1F70894C11CD11CFA94CF0C13
:107F7000D11C0EC0853739F428D08EE10CD085E9AC
:107F80000AD08FE07ACF813511F488E018D01DD067
:107F900080E101D065CF982F8091C00085FFFCCF94
:107FA0009093C60008958091C00087FFFCCF809118
:107FB000C00084FD01C0A8958091C6000895E0E648
:107FC000F0E098E1908380830895EDDF803219F02E
:107FD00088E0F5DFFFCF84E1DECF1F93182FE3DFCA
:107FE0001150E9F7F2DF1F91089580E0E8DFEE27F6
:047FF000FF270994CA
:027FFE00040479
:00000001FF
