:020000040000FA
:100000000C9462000C948A000C948A000C948A0070
:100010000C948A000C948A000C948A000C948A0038
:100020000C948A000C948A000C948A000C94F502BB
:100030000C948A000C948A000C948A000C948A0018
:100040000C9453020C948A000C94C3020C949D02ED
:100050000C948A000C948A000C948A000C948A00F8
:100060000C948A000C948A000000000023002600F3
:10007000290000000000240027002A0000000000E2
:10008000250028002B0004040404040404040202D4
:100090000202020203030303030301020408102007
:1000A0004080010204081020010204081020000012
:1000B0000008000201000003040700000000000027
:1000C0000000AC0311241FBECFEFD8E0DEBFCDBFD0
:1000D00011E0A0E0B1E0ECE7F0E102C005900D9284
:1000E000AA38B107D9F722E0AAE8B1E001C01D9211
:1000F000AB34B207E1F710E0C2E6D0E004C02197CC
:10010000FE010E943608C136D107C9F70E94FB03E1
:100110000C943C080C940000833081F028F481306A
:1001200099F08230A9F008958730A9F08830C9F09D
:100130008430B1F4809180008F7D03C08091800075
:100140008F7780938000089584B58F7784BD08955C
:1001500084B58F7DFBCF8091B0008F778093B00006
:1001600008958091B0008F7DF9CF1F93CF93DF93D7
:10017000282F30E0F901E255FF4F8491F901E6564E
:10018000FF4FD491F901EA57FF4FC491CC23A9F056
:10019000162F81110E948C00EC2FF0E0EE0FFF1F54
:1001A000E458FF4FA591B4918FB7F894EC911111D9
:1001B00008C0D095DE23DC938FBFDF91CF911F91D4
:1001C0000895DE2BF8CFCF93DF9390E0FC01E65645
:1001D000FF4F24918A579F4FFC0184918823D1F0CF
:1001E00090E0880F991FFC01EE58FF4FA591B49144
:1001F000FC01E458FF4FC591D49161110EC09FB727
:10020000F8948C91E22FE0958E238C932881E22341
:10021000E8839FBFDF91CF9108958FB7F894EC9159
:10022000E22BEC938FBFF6CF3FB7F89480919A0101
:1002300090919B01A0919C01B0919D0126B5A89B36
:1002400005C02F3F19F00196A11DB11D3FBFBA2F68
:10025000A92F982F8827BC01CD01620F711D811D28
:10026000911D42E0660F771F881F991F4A95D1F7AD
:100270000895AF92BF92CF92DF92EF92FF920F93C9
:100280001F93CF93DF936C017B018B01040F151F2C
:10029000EB015E01AE18BF08C017D10759F0699194
:1002A000D601ED91FC910190F081E02DC6010995F8
:1002B000892B79F7C501DF91CF911F910F91FF90A5
:1002C000EF90DF90CF90BF90AF900895FC01538DD9
:1002D000448D252F30E0842F90E0821B930B541720
:1002E00010F0CF96089501970895FC01918D828DAD
:1002F000981761F0A28DAE0FBF2FB11D5D968C9146
:10030000928D9F5F9F73928F90E008958FEF9FEF84
:100310000895FC01918D828D981731F0828DE80F40
:10032000F11D858D90E008958FEF9FEF0895FC01FA
:10033000918D228D892F90E0805C9F4F821B9109C7
:100340008F73992708958EE991E00E94970121E02B
:10035000892B09F420E0822F089580E090E0892B1A
:1003600029F00E94A30181110C9400000895FC0162
:10037000A48DA80FB92FB11DA35ABF4F2C91848D06
:1003800090E001968F739927848FA689B7892C9363
:10039000A089B1898C91837080648C93938D848DB6
:1003A000981306C00288F389E02D80818F7D8083B9
:1003B0000895EF92FF920F931F93CF93DF93EC0179
:1003C00081E0888F9B8D8C8D98131AC0E889F989FC
:1003D000808185FF15C09FB7F894EE89FF896083FF
:1003E000E889F98980818370806480839FBF81E080
:1003F00090E0DF91CF911F910F91FF90EF900895C2
:10040000F62E0B8D10E00F5F1F4F0F731127E02E9C
:100410008C8D8E110CC00FB607FCFACFE889F989D4
:10042000808185FFF5CFCE010E94B701F1CFEB8D22
:10043000EC0FFD2FF11DE35AFF4FF0829FB7F894A8
:100440000B8FEA89FB8980818062CFCFCF93DF93C6
:10045000EC01888D8823B9F0AA89BB89E889F989DC
:100460008C9185FD03C0808186FD0DC00FB607FC11
:10047000F7CF8C9185FFF2CF808185FFEDCFCE0144
:100480000E94B701E9CFDF91CF910895FC0101905F
:100490000020E9F73197AF01481B590BBC018EE9E9
:1004A00091E00C9439011F920F920FB60F92112414
:1004B0002F933F938F939F93AF93BF938091960118
:1004C00090919701A0919801B09199013091950177
:1004D00023E0230F2D3758F50196A11DB11D209360
:1004E00095018093960190939701A0939801B09302
:1004F000990180919A0190919B01A0919C01B091EA
:100500009D010196A11DB11D80939A0190939B01BD
:10051000A0939C01B0939D01BF91AF919F918F914A
:100520003F912F910F900FBE0F901F90189526E8C6
:10053000230F0296A11DB11DD2CF1F920F920FB6AD
:100540000F9211242F933F934F935F936F937F9359
:100550008F939F93AF93BF93EF93FF938EE991E0B7
:100560000E94B701FF91EF91BF91AF919F918F9141
:100570007F916F915F914F913F912F910F900FBE9F
:100580000F901F9018951F920F920FB60F92112483
:100590002F938F939F93EF93FF93E091AE01F09190
:1005A000AF018081E091B401F091B50182FD1BC0E3
:1005B00090818091B7018F5F8F732091B80182176E
:1005C00041F0E091B701F0E0E256FE4F958F809345
:1005D000B701FF91EF919F918F912F910F900FBED7
:1005E0000F901F9018958081F4CF1F920F920FB635
:1005F0000F9211241F932F933F934F935F936F9309
:100600007F938F939F93AF93BF93CF93DF93EF939A
:10061000FF9380919201882319F180918E0191E0DE
:10062000980F90938E0181111BC0C0919001109181
:10063000000180919101C81768F160E08AE00E9492
:10064000B50060E0812F0E94B50010929201809168
:100650008C0190918D01019690938D0180938C0176
:1006600080918E01883010F010928E01FF91EF91F1
:10067000DF91CF91BF91AF919F918F917F916F91BA
:100680005F914F913F912F911F910F900FBE0F904F
:100690001F901895EC2FF0E0EF5FFE4F60812091E6
:1006A0008F01D1E0D20FD0938F0181E090E001C0A3
:1006B000880F2A95EAF76823812F0E94B500D6306B
:1006C000A8F210928F01CF5FC0939001C9CFCF9253
:1006D000DF92EF92FF920F931F93E82FF92F05C03F
:1006E000015011092109310961F190819623941774
:1006F000B9F305C0015011092109310911F19081A7
:1007000096239413F7CFC12CD12CE12CF12C0AC0E5
:100710008FEFC81AD80AE80AF80A0C151D052E052D
:100720003F0579F080818623841791F36C2D7D2D10
:100730008E2D9F2D1F910F91FF90EF90DF90CF9006
:10074000089560E070E080E090E01F910F91FF90CD
:10075000EF90DF90CF900895EEE9F1E013821282DE
:1007600088EE93E0A0E0B0E084839583A683B7830E
:1007700087E691E09183808385EC90E0958784877C
:1007800084EC90E09787868780EC90E0918B808B5B
:1007900081EC90E0938B828B82EC90E0958B848B44
:1007A00086EC90E0978B868B118E128E138E148EB2
:1007B00061E08CE00E94E30060E08BE00E94E300D7
:1007C000EBE3F2E08CE090E0918380838BE090E0BB
:1007D0009383828385E89CEFACEDB1E484839583B9
:1007E000A683B7838CE993E5ACE8B2E48087918770
:1007F000A287B3870895CF93DF93CDB7DEB7A197D4
:100800000FB6F894DEBF0FBECDBF789484B582607A
:1008100084BD84B5816084BD85B5826085BD85B5A4
:10082000816085BD80916E00816080936E00109222
:10083000810080918100826080938100809181009D
:10084000816080938100809180008160809380002E
:100850008091B10084608093B1008091B00081608C
:100860008093B00080917A00846080937A008091B8
:100870007A00826080937A0080917A008160809310
:100880007A0080917A00806880937A001092C1008B
:10089000E091AE01F091AF0192E09083E091AA0166
:1008A000F091AB011082E091AC01F091AD018FECC1
:1008B00080831092B601E091B201F091B30186E01D
:1008C0008083E091B001F091B101808180618083EB
:1008D000E091B001F091B101808188608083E09166
:1008E000B001F091B101808180688083E091B00116
:1008F000F091B10180818F7D8083909300018EE023
:10090000E5E4F1E0DE01119601900D928A95E1F7A0
:100910007E0123E0E20EF11C11E0F701619171917B
:100920007F0190E080E00E9419079B01AC0160E02C
:1009300074E284E79BE40E9471069B01AC0160E0D5
:1009400070E080E89FE30E9471069B01AC016FE6B6
:1009500072E183E098E30E9471060E94E3064B0176
:100960005C01F2E08F1A9108A108B1082DEF821600
:100970002FEF9206A104B10408F4AFC11F5F173036
:1009800061F6623071058105910550F161157105BF
:1009900031E08307910520F51092800028E0209334
:1009A000810020918100122B1093810070938900A7
:1009B0006093880080916F00826080936F0061E097
:1009C000809100010E94E30060E08BE00E94E30060
:1009D00061E08AE00E94E30060E08AE00E94B500E6
:1009E00093E0292E312C60E080913B020E94B500FB
:1009F000C1010197F1F761E080913B020E94B500CF
:100A000083E290E00197F1F760E080913B020E9461
:100A1000B50080913D0290913E029927FC01E65677
:100A2000FF4F6491FC01EA57FF4FE491F0E0EE0FB5
:100A3000FF1FE859FF4F8591949100E412E42FE0E5
:100A400030E0462F0E94670361157105810591050D
:100A500029F06F5F7F4F8F4F9F4F9F700E941B0742
:100A600020913F0230914002409141025091420258
:100A70000E94710620E030E040E05FE30E94A7079B
:100A80000E94E3066B0185E791E00E944602460161
:100A90000D2C000CAA08BB08B7FE07C16DE28EE959
:100AA00091E00E94D90122273327A9012819390989
:100AB0004A095B0919A28E010F5D1F4FCA01B901D6
:100AC0002AE030E040E050E00E941408605DF80148
:100AD00062938F01211531054105510579F7011503
:100AE000110519F0C8010E94460287E891E00E94B2
:100AF00046020E9414012B013C0108EE802E03E007
:100B0000902EA12CB12C0E9414016419750986093C
:100B10009709683E734081059105A8F3F1E08F1AAB
:100B20009108A108B10828EE420E23E0521E611C74
:100B3000711C81149104A104B10429F7C09293019E
:100B4000D0929401809192018111FCCF8DE080932D
:100B5000090199E190930A012AE22C25E0E12E9FF8
:100B6000C0011124282730E0922F88278865A90129
:100B700064E0559547956A95E1F78427952773E0DA
:100B8000220F331F7A95E1F782279327F601A4E01D
:100B9000F595E795AA95E1F7EF70FF27ED5AFE4F1F
:100BA000208120930B01EC2DEF70F0E0ED5AFE4F09
:100BB000208120930C012D2D2827F0E12F9FA001EB
:100BC00011242427ED2DFF2714E0F595E7951A95BC
:100BD000E1F7ED5AFE4F308130930D01ED2DEF70AE
:100BE000F0E0ED5AFE4F308130930E01892F9927A6
:100BF000422F50E0922B9A0164E0359527956A9533
:100C0000E1F78227932773E0440F551F7A95E1F7A8
:100C10008427952780959095FC01A4E0F695E795AB
:100C2000AA95E1F7EF70FF27ED5AFE4F2081209340
:100C30000F01FC01EF70FF27ED5AFE4F208120933A
:100C40001001FC01EF2FFF27E295EF70ED5AFE4FE8
:100C5000208120931101E92FFF27EF70FF27ED5A24
:100C6000FE4F80818093120122E120939101109226
:100C7000900110928F0110928E0161E08AE00E9433
:100C8000B50081E080939201809192018111FCCFA7
:100C900080E090E0892B09F4A6CE0E94A30188236E
:100CA00009F4A1CE0E9400009ECEA501940119A2D4
:100CB0008E010F5D1F4FCA01B9012AE030E040E00C
:100CC00050E00E941408605DF80162938F012115C5
:100CD00031054105510579F702CF163009F05CCE98
:100CE0007FCE0E9485060C946D070E94660758F01F
:100CF0000E945F0740F029F45F3F29F00C945607EB
:100D000051110C94A1070C945C070E947E0768F3B4
:100D10009923B1F3552391F3951B550BBB27AA27B4
:100D200062177307840738F09F5F5F4F220F331FEE
:100D3000441FAA1FA9F335D00E2E3AF0E0E832D0B6
:100D400091505040E695001CCAF72BD0FE2F29D0B9
:100D5000660F771F881FBB1F261737074807AB078B
:100D6000B0E809F0BB0B802DBF01FF2793585F4F00
:100D70003AF09E3F510578F00C9456070C94A10769
:100D80005F3FE4F3983ED4F3869577956795B795E2
:100D9000F7959F5FC9F7880F911D9695879597F9ED
:100DA0000895E1E0660F771F881FBB1F6217730766
:100DB0008407BA0720F0621B730B840BBA0BEE1F7B
:100DC00088F7E09508950E94EA066894B1110C94A2
:100DD000A10708950E94860788F09F5798F0B92FC1
:100DE0009927B751B0F0E1F0660F771F881F991F60
:100DF0001AF0BA95C9F714C0B13091F00E94A0075B
:100E0000B1E008950C94A007672F782F8827B85F6A
:100E100039F0B93FCCF3869577956795B395D9F7B7
:100E20003EF490958095709561957F4F8F4F9F4FC1
:100E30000895E89409C097FB3EF4909580957095CD
:100E400061957F4F8F4F9F4F9923A9F0F92F96E916
:100E5000BB279395F695879577956795B795F1118B
:100E6000F8CFFAF4BB0F11F460FF1BC06F5F7F4F28
:100E70008F4F9F4F16C0882311F096E911C077233A
:100E800021F09EE8872F762F05C0662371F096E843
:100E9000862F70E060E02AF09A95660F771F881F12
:100EA000DAF7880F9695879597F9089597F99F67D0
:100EB00080E870E060E008959FEF80EC08950024E2
:100EC0000A941616170618060906089500240A94AF
:100ED00012161306140605060895092E0394000C35
:100EE00011F4882352F0BB0F40F4BF2B11F460FFC4
:100EF00004C06F5F7F4F8F4F9F4F089557FD9058ED
:100F0000440F551F59F05F3F71F04795880F97FBCD
:100F1000991F61F09F3F79F0879508951216130687
:100F20001406551FF2CF4695F1DF08C016161706B6
:100F30001806991FF1CF86957105610508940895EB
:100F4000E894BB2766277727CB0197F908950E947D
:100F5000BA070C946D070E945F0738F00E9466077D
:100F600020F0952311F00C9456070C945C07112483
:100F70000C94A1070E947E0770F3959FC1F3950F13
:100F800050E0551F629FF001729FBB27F00DB11D0D
:100F9000639FAA27F00DB11DAA1F649F6627B00D9D
:100FA000A11D661F829F2227B00DA11D621F739F86
:100FB000B00DA11D621F839FA00D611D221F749F94
:100FC0003327A00D611D231F849F600D211D822FDB
:100FD000762F6A2F11249F5750409AF0F1F0882302
:100FE0004AF0EE0FFF1FBB1F661F771F881F91502F
:100FF0005040A9F79E3F510580F00C9456070C9481
:10100000A1075F3FE4F3983ED4F386957795679503
:10101000B795F795E7959F5FC1F7FE2B880F911D58
:101020009695879597F90895A1E21A2EAA1BBB1BE6
:10103000FD010DC0AA1FBB1FEE1FFF1FA217B307A4
:10104000E407F50720F0A21BB30BE40BF50B661FBA
:10105000771F881F991F1A9469F76095709580957E
:1010600090959B01AC01BD01CF010895EE0FFF1FCC
:101070000590F491E02D0994F894FFCF0C2A2A2AC8
:101080002A2A2A382C00000000000000000000007E
:101090000000000000000000000000000000000050
:1010A0000000000000000000000000000000000040
:1010B0000000000000000000000000000000000030
:1010C00000000001000800400000010004050D0DB3
:1010D0000E131516191A1C232526292A2C32340022
:1010E000000000D9013901660126029701750189C6
:1010F0000144697374616E63696120656D20636D7D
:061100003A20000D0A0078
:107E0000112484B714BE81FFF0D085E080938100F7
:107E100082E08093C00088E18093C10086E0809377
:107E2000C20080E18093C4008EE0C9D0259A86E02C
:107E300020E33CEF91E0309385002093840096BBD3
:107E4000B09BFECF1D9AA8958150A9F7CC24DD24C4
:107E500088248394B5E0AB2EA1E19A2EF3E0BF2EE7
:107E6000A2D0813461F49FD0082FAFD0023811F036
:107E7000013811F484E001C083E08DD089C08234E0
:107E800011F484E103C0853419F485E0A6D080C0E4
:107E9000853579F488D0E82EFF2485D0082F10E0AE
:107EA000102F00270E291F29000F111F8ED06801E7
:107EB0006FC0863521F484E090D080E0DECF843638
:107EC00009F040C070D06FD0082F6DD080E0C81688
:107ED00080E7D80618F4F601B7BEE895C0E0D1E017
:107EE00062D089930C17E1F7F0E0CF16F0E7DF06D8
:107EF00018F0F601B7BEE89568D007B600FCFDCFD4
:107F0000A601A0E0B1E02C9130E011968C91119780
:107F100090E0982F8827822B932B1296FA010C0160
:107F200087BEE89511244E5F5F4FF1E0A038BF0790
:107F300051F7F601A7BEE89507B600FCFDCF97BE46
:107F4000E89526C08437B1F42ED02DD0F82E2BD052
:107F50003CD0F601EF2C8F010F5F1F4F84911BD097
:107F6000EA94F801C1F70894C11CD11CFA94CF0C13
:107F7000D11C0EC0853739F428D08EE10CD085E9AC
:107F80000AD08FE07ACF813511F488E018D01DD067
:107F900080E101D065CF982F8091C00085FFFCCF94
:107FA0009093C60008958091C00087FFFCCF809118
:107FB000C00084FD01C0A8958091C6000895E0E648
:107FC000F0E098E1908380830895EDDF803219F02E
:107FD00088E0F5DFFFCF84E1DECF1F93182FE3DFCA
:107FE0001150E9F7F2DF1F91089580E0E8DFEE27F6
:047FF000FF270994CA
:027FFE00040479
:00000001FF
