:100000000C9462000C948A000C948A000C948A0070
:100010000C948A000C948A000C948A000C948A0038
:100020000C948A000C948A000C948A000C94D002E0
:100030000C948A000C948A000C948A000C948A0018
:100040000C942E020C948A000C949E020C9478025C
:100050000C948A000C948A000C948A000C948A00F8
:100060000C948A000C948A000000000023002600F3
:10007000290000000000240027002A0000000000E2
:10008000250028002B0004040404040404040202D4
:100090000202020203030303030301020408102007
:1000A0004080010204081020010204081020000012
:1000B0000008000201000003040700000000000027
:1000C0000000970511241FBECFEFD8E0DEBFCDBFE3
:1000D00011E0A0E0B1E0EAE5FEE002C005900D927B
:1000E000A834B107D9F722E0A8E4B1E001C01D921D
:1000F000A032B207E1F710E0C2E6D0E004C02197D9
:10010000FE010E941C07C136D107C9F70E94F70300
:100110000C942B070C940000833081F028F481307C
:1001200099F08230A9F008958730A9F08830C9F09D
:100130008430B1F4809180008F7D03C08091800075
:100140008F7780938000089584B58F7784BD08955C
:1001500084B58F7DFBCF8091B0008F778093B00006
:1001600008958091B0008F7DF9CF1F93CF93DF93D7
:10017000282F30E0F901E255FF4F8491F901E6564E
:10018000FF4FD491F901EA57FF4FC491CC23A9F056
:10019000162F81110E948C00EC2FF0E0EE0FFF1F54
:1001A000E458FF4FA591B4918FB7F894EC911111D9
:1001B00008C0D095DE23DC938FBFDF91CF911F91D4
:1001C0000895DE2BF8CFCF93DF9390E0FC01E65645
:1001D000FF4F24918A579F4FFC0184918823D1F0CF
:1001E00090E0880F991FFC01EE58FF4FA591B49144
:1001F000FC01E458FF4FC591D49161110EC09FB727
:10020000F8948C91E22FE0958E238C932881E22341
:10021000E8839FBFDF91CF9108958FB7F894EC9159
:10022000E22BEC938FBFF6CFAF92BF92CF92DF92CB
:10023000EF92FF920F931F93CF93DF936C017B019B
:100240008B01040F151FEB015E01AE18BF08C0172C
:10025000D10759F06991D601ED91FC910190F0819F
:10026000E02DC6010995892B79F7C501DF91CF9162
:100270001F910F91FF90EF90DF90CF90BF90AF90C4
:100280000895FC01538D448D252F30E0842F90E09C
:10029000821B930B541710F0CF9608950197089581
:1002A000FC01918D828D981761F0A28DAE0FBF2F4A
:1002B000B11D5D968C91928D9F5F9F73928F90E0A0
:1002C00008958FEF9FEF0895FC01918D828D98170F
:1002D00031F0828DE80FF11D858D90E008958FEF4C
:1002E0009FEF0895FC01918D228D892F90E0805C15
:1002F0009F4F821B91098F739927089583E891E09E
:100300000E94720121E0892B09F420E0822F0895D8
:1003100080E090E0892B29F00E947E0181110C94ED
:1003200000000895FC01A48DA80FB92FB11DA35A98
:10033000BF4F2C91848D90E001968F739927848F05
:10034000A689B7892C93A089B1898C918370806428
:100350008C93938D848D981306C00288F389E02DC9
:1003600080818F7D80830895EF92FF920F931F937A
:10037000CF93DF93EC0181E0888F9B8D8C8D981358
:100380001AC0E889F989808185FF15C09FB7F89464
:10039000EE89FF896083E889F989808183708064B0
:1003A00080839FBF81E090E0DF91CF911F910F91FB
:1003B000FF90EF900895F62E0B8D10E00F5F1F4F0A
:1003C0000F731127E02E8C8D8E110CC00FB607FC19
:1003D000FACFE889F989808185FFF5CFCE010E94A7
:1003E0009201F1CFEB8DEC0FFD2FF11DE35AFF4F82
:1003F000F0829FB7F8940B8FEA89FB898081806235
:10040000CFCFCF93DF93EC01888D8823B9F0AA89F1
:10041000BB89E889F9898C9185FD03C0808186FDBF
:100420000DC00FB607FCF7CF8C9185FFF2CF80810E
:1004300085FFEDCFCE010E949201E9CFDF91CF91F0
:100440000895FC0101900020E9F73197AF01481BA6
:10045000590BBC0183E891E00C9414011F920F9298
:100460000FB60F9211242F933F938F939F93AF93C7
:10047000BF9380917F0190918001A0918101B09103
:10048000820130917E0123E0230F2D3758F501962C
:10049000A11DB11D20937E0180937F019093800167
:1004A000A0938101B093820180917A0190917B01A8
:1004B000A0917C01B0917D010196A11DB11D809399
:1004C0007A0190937B01A0937C01B0937D01BF9151
:1004D000AF919F918F913F912F910F900FBE0F90F1
:1004E0001F90189526E8230F0296A11DB11DD2CFAB
:1004F0001F920F920FB60F9211242F933F934F9399
:100500005F936F937F938F939F93AF93BF93EF937B
:10051000FF9383E891E00E949201FF91EF91BF91D8
:10052000AF919F918F917F916F915F914F913F918B
:100530002F910F900FBE0F901F9018951F920F9242
:100540000FB60F9211242F938F939F93EF93FF93E6
:10055000E0919301F09194018081E0919901F091F3
:100560009A0182FD1BC0908180919C018F5F8F73E7
:1005700020919D01821741F0E0919C01F0E0ED5740
:10058000FE4F958F80939C01FF91EF919F918F91EA
:100590002F910F900FBE0F901F9018958081F4CF70
:1005A0001F920F920FB60F9211241F932F933F9318
:1005B0004F935F936F937F938F939F93AF93BF936B
:1005C000CF93DF93EF93FF9310915701112339F1EC
:1005D00080915501811123C02091000130E0F90183
:1005E000E255FF4F8491F901E656FF4FD491F9018E
:1005F000EA57FF4FC491CC2379F081110E948C00FF
:10060000EC2FF0E0EE0FFF1FE859FF4FA591B491DA
:10061000EC91DE2381E009F480E080935401809125
:1006200055018823D9F08091530191E0980F909360
:100630005301811113C060E08AE00E94B50060E0C0
:100640008CE00E94B500109255018091510190916B
:100650005201019690935201809351018091530170
:10066000883010F010925301112309F47AC0809160
:100670005501811176C090915401992329F0809100
:1006800050018F5F8093500180914E0120914F0166
:10069000921709F47AC02BE0803508F02DE1820F23
:1006A00080934E0190934F0120914E01203A08F41F
:1006B00058C080914C0190914D01969587959093EB
:1006C0004D0180934C0130915001353028F09860F5
:1006D00090934D0180934C01205A20934E0110922B
:1006E000500180915601882309F470C080914B011C
:1006F0008F5F80934B018C30A0F140914C01509161
:100700004D01942F9F73EFE0F1E0DF0180E02D9128
:10071000921721F08F5F8031D1F780E090E1899FBF
:100720009001112486E0569547958A95E1F780E07F
:100730009191491721F08F5F8031D1F780E0822BB2
:1007400090917601911125C080934A019CEF980FFA
:100750009B31F8F010925601809149018F5F809390
:100760004901FF91EF91DF91CF91BF91AF919F919F
:100770008F917F916F915F914F913F912F911F9139
:100780000F900FBE0F901F9018958C5E80934E01B6
:100790008BCFE091760191E09E0F90937601F0E08F
:1007A000E85AFE4F80839091760180914A01981714
:1007B00050F010925601809148018F5F809348015C
:1007C00081E08093770110924B01CBCF80914C0157
:1007D00090914D0188339B4021F681E08093560132
:1007E00010924B011092760110927701BACFCF93FD
:1007F000DF93CDB7DEB7A1970FB6F894DEBF0FBE7B
:10080000CDBF789484B5826084BD84B5816084BD99
:1008100085B5826085BD85B5816085BD80916E009E
:10082000816080936E0010928100809181008260CF
:10083000809381008091810081608093810080910C
:1008400080008160809380008091B10084608093FB
:10085000B1008091B00081608093B00080917A00F7
:10086000846080937A0080917A00826080937A001D
:1008700080917A00816080937A0080917A0080680C
:1008800080937A001092C100E0919301F09194015D
:1008900092E09083E0918F01F09190011082E091BD
:1008A0009101F09192018FEC808310929B01E09175
:1008B0009701F091980186E08083E0919501F09195
:1008C0009601808180618083E0919501F09196018D
:1008D000808188608083E0919501F091960180810C
:1008E00080688083E0919501F091960180818F7DF1
:1008F0008083909300018EE0E1E0F1E0DE0111964B
:1009000001900D928A95E1F77E0123E0E20EF11C41
:1009100011E0F701619171917F0190E080E00E9408
:100920008E069B01AC0160E074E284E79BE40E94C8
:10093000E6059B01AC0160E070E080E89FE30E9467
:10094000E6059B01AC016FE672E183E098E30E944B
:10095000E6050E9458064B015C01F2E08F1A9108EF
:10096000A108B1082DEF82162FEF9206A104B10461
:1009700008F4D9C01F5F173061F662307105810538
:10098000910550F161157105E1E08E07910520F5A3
:100990001092800028E02093810020918100122B8A
:1009A00010938100709389006093880080916F009C
:1009B000826080936F0061E08CE00E94E30060E061
:1009C000809100010E94E30061E08AE00E94E30060
:1009D00060E08AE00E94B50080915701811105C056
:1009E00081E080935701109256011AE0812E912CDC
:1009F000A12CB12C00E0E02E00E0F02E80917701D8
:100A0000882309F46EC0409176014350423008F0CB
:100A100042E050E069E571E088E791E00E9422073A
:100A20001092770130917601E8E5F1E08FEF9FEFCA
:100A30003150E0F02191282760E1269FA001112488
:100A40002427422F50E0892F9927922BBA01A4E046
:100A500075956795AA95E1F786279727B3E0440F28
:100A6000551FBA95E1F784279527E2CF883B904F31
:100A7000C1F5009178011091790181E391E00E9424
:100A800021022801012E000C6608770817FF35C0E7
:100A90006DE283E891E00E94B40122273327A90187
:100AA000241935094609570919A28E010F5D1F4FF8
:100AB000CA01B901A50194010E94C405605DF80155
:100AC00062938F01211531054105510589F7011503
:100AD000110519F0C8010E94210285E491E00E94ED
:100AE0002102E114F10409F489CF0E947E018823D8
:100AF00009F484CF0E94000081CFA301920119A2C2
:100B00008E010F5D1F4FCA01B901A50194010E941A
:100B1000C405605DF80162938F012115310541051F
:100B2000510589F7D4CF163009F032CF55CFE3E81D
:100B3000F1E01382128288EE93E0A0E0B0E08483BB
:100B40009583A683B78383E291E09183808385ECCC
:100B500090E09587848784EC90E09787868780EC87
:100B600090E0918B808B81EC90E0938B828B82EC78
:100B700090E0958B848B86EC90E0978B868B118E22
:100B8000128E138E148E0895A1E21A2EAA1BBB1B7F
:100B9000FD010DC0AA1FBB1FEE1FFF1FA217B30749
:100BA000E407F50720F0A21BB30BE40BF50B661F5F
:100BB000771F881F991F1A9469F760957095809523
:100BC00090959B01AC01BD01CF0108950E94FA05EB
:100BD0000C94E2060E94DB0658F00E94D40640F016
:100BE00029F45F3F29F00C94CB0651110C941607A1
:100BF0000C94D1060E94F30668F39923B1F35523B0
:100C000091F3951B550BBB27AA276217730784071F
:100C100038F09F5F5F4F220F331F441FAA1FA9F3B5
:100C200035D00E2E3AF0E0E832D091505040E695A3
:100C3000001CCAF72BD0FE2F29D0660F771F881F04
:100C4000BB1F261737074807AB07B0E809F0BB0BF7
:100C5000802DBF01FF2793585F4F3AF09E3F51050B
:100C600078F00C94CB060C9416075F3FE4F3983EA3
:100C7000D4F3869577956795B795F7959F5FC9F7F4
:100C8000880F911D9695879597F90895E1E0660F75
:100C9000771F881FBB1F621773078407BA0720F0EE
:100CA000621B730B840BBA0BEE1F88F7E095089557
:100CB0000E945F066894B1110C94160708950E9473
:100CC000FB0688F09F5798F0B92F9927B751B0F0DD
:100CD000E1F0660F771F881F991F1AF0BA95C9F7C0
:100CE00014C0B13091F00E941507B1E008950C9442
:100CF0001507672F782F8827B85F39F0B93FCCF3F5
:100D0000869577956795B395D9F73EF4909580953C
:100D1000709561957F4F8F4F9F4F0895E89409C05C
:100D200097FB3EF490958095709561957F4F8F4F1E
:100D30009F4F9923A9F0F92F96E9BB279395F69534
:100D4000879577956795B795F111F8CFFAF4BB0FB2
:100D500011F460FF1BC06F5F7F4F8F4F9F4F16C016
:100D6000882311F096E911C0772321F09EE8872FA0
:100D7000762F05C0662371F096E8862F70E060E05C
:100D80002AF09A95660F771F881FDAF7880F9695D5
:100D9000879597F9089597F99F6780E870E060E07C
:100DA00008959FEF80EC089500240A941616170604
:100DB00018060906089500240A941216130614064C
:100DC00005060895092E0394000C11F4882352F0AF
:100DD000BB0F40F4BF2B11F460FF04C06F5F7F4F67
:100DE0008F4F9F4F089557FD9058440F551F59F04E
:100DF0005F3F71F04795880F97FB991F61F09F3F08
:100E000079F087950895121613061406551FF2CF30
:100E10004695F1DF08C0161617061806991FF1CF80
:100E200086957105610508940895E894BB276627A7
:100E30007727CB0197F90895EE0FFF1F0590F491E6
:100E4000E02D0994FB01DC0102C001900D9241509C
:0A0E50005040D8F70895F894FFCF42
:100E5A000B000001000800400000010004050D0D10
:100E6A000E131516191A1C232526292A2C3234008A
:100E7A00000000B401140141010102720150016431
:100E8A000152656365697665642044697374616EAD
:080E9A0063653A20000D0A0017
:00000001FF
