:020000040000FA
:100000000C9462000C948A000C948A000C948A0070
:100010000C948A000C948A000C948A000C948A0038
:100020000C948A000C948A000C948A000C94C302ED
:100030000C948A000C948A000C948A000C948A0018
:100040000C9421020C948A000C9491020C946B0283
:100050000C948A000C948A000C948A000C948A00F8
:100060000C948A000C948A000000000023002600F3
:10007000290000000000240027002A0000000000E2
:10008000250028002B0004040404040404040202D4
:100090000202020203030303030301020408102007
:1000A0004080010204081020010204081020000012
:1000B0000008000201000003040700000000000027
:1000C0000000770511241FBECFEFD8E0DEBFCDBF03
:1000D00011E0A0E0B1E0EAE1FEE002C005900D927F
:1000E000A833B107D9F722E0A8E3B1E001C01D921F
:1000F000AC32B207E1F710E0C2E6D0E004C02197CD
:10010000FE010E94FC06C136D107C9F70E94EA032E
:100110000C940B070C940000833081F028F481309C
:1001200099F08230A9F008958730A9F08830C9F09D
:100130008430B1F4809180008F7D03C08091800075
:100140008F7780938000089584B58F7784BD08955C
:1001500084B58F7DFBCF8091B0008F778093B00006
:1001600008958091B0008F7DF9CF1F93CF93DF93D7
:10017000282F30E0F901E255FF4F8491F901E6564E
:10018000FF4FD491F901EA57FF4FC491CC23A9F056
:10019000162F81110E948C00EC2FF0E0EE0FFF1F54
:1001A000E458FF4FA591B4918FB7F894EC911111D9
:1001B00008C0D095DE23DC938FBFDF91CF911F91D4
:1001C0000895DE2BF8CFCF93DF9390E0FC01E65645
:1001D000FF4F24918A579F4FFC0184918823D1F0CF
:1001E00090E0880F991FFC01EE58FF4FA591B49144
:1001F000FC01E458FF4FC591D49161110EC09FB727
:10020000F8948C91E22FE0958E238C932881E22341
:10021000E8839FBFDF91CF9108958FB7F894EC9159
:10022000E22BEC938FBFF6CFAF92BF92CF92DF92CB
:10023000EF92FF920F931F93CF93DF936C017B019B
:100240008B01040F151FEB015E01AE18BF08C0172C
:10025000D10759F06991D601ED91FC910190F0819F
:10026000E02DC6010995892B79F7C501DF91CF9162
:100270001F910F91FF90EF90DF90CF90BF90AF90C4
:100280000895FC01538D448D252F30E0842F90E09C
:10029000821B930B541710F0CF9608950197089581
:1002A000FC01918D828D981761F0A28DAE0FBF2F4A
:1002B000B11D5D968C91928D9F5F9F73928F90E0A0
:1002C00008958FEF9FEF0895FC01918D828D98170F
:1002D00031F0828DE80FF11D858D90E008958FEF4C
:1002E0009FEF0895FC01918D228D892F90E0805C15
:1002F0009F4F821B91098F739927089588E691E09B
:100300000E94720121E0892B09F420E0822F0895D8
:1003100080E090E0892B29F00E947E0181110C94ED
:1003200000000895FC01A48DA80FB92FB11DA35A98
:10033000BF4F2C91848D90E001968F739927848F05
:10034000A689B7892C93A089B1898C918370806428
:100350008C93938D848D981306C00288F389E02DC9
:1003600080818F7D80830895EF92FF920F931F937A
:10037000CF93DF93EC0181E0888F9B8D8C8D981358
:100380001AC0E889F989808185FF15C09FB7F89464
:10039000EE89FF896083E889F989808183708064B0
:1003A00080839FBF81E090E0DF91CF911F910F91FB
:1003B000FF90EF900895F62E0B8D10E00F5F1F4F0A
:1003C0000F731127E02E8C8D8E110CC00FB607FC19
:1003D000FACFE889F989808185FFF5CFCE010E94A7
:1003E0009201F1CFEB8DEC0FFD2FF11DE35AFF4F82
:1003F000F0829FB7F8940B8FEA89FB898081806235
:10040000CFCFCF93DF93EC01888D8823B9F0AA89F1
:10041000BB89E889F9898C9185FD03C0808186FDBF
:100420000DC00FB607FCF7CF8C9185FFF2CF80810E
:1004300085FFEDCFCE010E949201E9CFDF91CF91F0
:1004400008951F920F920FB60F9211242F933F938E
:100450008F939F93AF93BF9380912802909129022D
:10046000A0912A02B0912B023091270223E0230FA2
:100470002D3758F50196A11DB11D209327028093B9
:10048000280290932902A0932A02B0932B02809114
:10049000230290912402A0912502B0912602019698
:1004A000A11DB11D8093230290932402A0932502E5
:1004B000B0932602BF91AF919F918F913F912F9161
:1004C0000F900FBE0F901F90189526E8230F0296ED
:1004D000A11DB11DD2CF1F920F920FB60F92112402
:1004E0002F933F934F935F936F937F938F939F933C
:1004F000AF93BF93EF93FF9388E691E00E94920140
:10050000FF91EF91BF91AF919F918F917F916F91EB
:100510005F914F913F912F910F900FBE0F901F90C1
:1005200018951F920F920FB60F9211242F938F934D
:100530009F93EF93FF93E0917801F091790180818F
:10054000E0917E01F0917F0182FD1BC0908180913E
:1005500081018F5F8F7320918201821741F0E091BA
:100560008101F0E0E859FE4F958F80938101FF9162
:10057000EF919F918F912F910F900FBE0F901F9031
:1005800018958081F4CF1F920F920FB60F9211240D
:100590001F932F933F934F935F936F937F938F930B
:1005A0009F93AF93BF93CF93DF93EF93FF931091FC
:1005B0004701112339F180914501811123C0209118
:1005C000000130E0F901E255FF4F8491F901E65650
:1005D000FF4FD491F901EA57FF4FC491CC2379F032
:1005E00081110E948C00EC2FF0E0EE0FFF1FE85904
:1005F000FF4FA591B491EC91DE2381E009F480E0F6
:1006000080934401809145018823D9F08091430172
:1006100091E0980F90934301811113C060E08AE04C
:100620000E94B50060E08CE00E94B5001092450188
:1006300080914101909142010196909342018093F3
:10064000410180914301883010F010924301112341
:1006500009F47AC080914501811176C090914401DE
:10066000992329F0809140018F5F80934001809110
:100670003E0120913F01921709F47AC02BE08035AA
:1006800008F02DE1820F80933E0190933F0120916D
:100690003E01203A08F458C080913C0190913D0100
:1006A0009695879590933D0180933C013091400150
:1006B000353028F0986090933D0180933C01205A9A
:1006C00020933E011092400180914601882309F455
:1006D00070C080913B018F5F80933B018C30A0F113
:1006E00040913C0150913D01942F9F73E0E1F1E076
:1006F000DF0180E02D91921721F08F5F8031D1F7DB
:1007000080E090E1899F9001112486E056954795FD
:100710008A95E1F780E09191491721F08F5F803150
:10072000D1F780E0822B90916601911125C08093D2
:100730003A019CEF980F9B31F8F01092460180919E
:1007400039018F5F80933901FF91EF91DF91CF9154
:10075000BF91AF919F918F917F916F915F914F91D9
:100760003F912F911F910F900FBE0F901F901895E2
:100770008C5E80933E018BCFE091660191E09E0FED
:1007800090936601F0E0E85BFE4F808390916601F4
:1007900080913A01981750F01092460180913801EB
:1007A0008F5F8093380181E08093670110923B0155
:1007B000CBCF80913C0190913D0188339B4021F645
:1007C00081E08093460110923B01109266011092E5
:1007D0006701BACFCF93DF93CDB7DEB7A1970FB63E
:1007E000F894DEBF0FBECDBF789484B5826084BD1F
:1007F00084B5816084BD85B5826085BD85B5816025
:1008000085BD80916E00816080936E0010928100A2
:10081000809181008260809381008091810081605D
:10082000809381008091800081608093800080911E
:10083000B10084608093B1008091B00081608093AA
:10084000B00080917A00846080937A0080917A0071
:10085000826080937A0080917A00816080937A0030
:1008600080917A00806880937A001092C100E091B4
:100870007801F091790112E01083E0917401F09118
:1008800075011082E0917601F09177018FEC808301
:1008900010928001E0917C01F0917D0186E08083DF
:1008A000E0917A01F0917B01808180618083E09109
:1008B0007A01F0917B01808188608083E0917A01E8
:1008C000F0917B01808180688083E0917A01F091D2
:1008D0007B0180818F7D808361E083E00E94E30063
:1008E00061E084E00E94E300109300018EE0E2E00A
:1008F000F1E0DE01119601900D928A95E1F77E01FB
:1009000023E0E20EF11C11E0F701619171917F018A
:1009100090E080E00E944C069B01AC0160E074E234
:1009200084E79BE40E94A4059B01AC0160E070E0B9
:1009300080E89FE30E94A4059B01AC016FE672E191
:1009400083E098E30E94A4050E9416064B015C0117
:10095000F2E08F1A9108A108B1082DEF82162FEF4F
:100960009206A104B10408F4BEC01F5F173061F6FF
:10097000623071058105910550F161157105E1E065
:100980008E07910520F51092800028E020938100C9
:1009900020918100122B1093810070938900609345
:1009A000880080916F00826080936F0061E08CE02E
:1009B0000E94E30060E0809100010E94E30061E09A
:1009C0008AE00E94E30060E08AE00E94B500809126
:1009D0004701811105C081E08093470110924601D3
:1009E0001AE0812E912CA12CB12C00E0E02E00E029
:1009F000F02E80916701882309F469C08091660117
:100A0000835090910101891710F480930101409166
:100A1000010150E069E471E085E092E00E94020784
:100A20001092670130916601E8E4F1E08FEF9FEFEB
:100A30003150E0F02191282760E1269FA001112488
:100A40002427422F50E0892F9927922BBA01A4E046
:100A500075956795AA95E1F786279727B3E0440F28
:100A6000551FBA95E1F784279527E2CF883B904F31
:100A700071F545E050E062E371E088E691E00E94A4
:100A800014012091050230E050E040E019A28E01EF
:100A90000F5D1F4FCA01B901A50194010E94DA063A
:100AA000605DF80162938F01211531054105510503
:100AB00089F7309761F001900020E9F73197AF0195
:100AC000401B510BB80188E691E00E941401E1142B
:100AD000F10409F48ECF0E947E01882309F489CFA6
:100AE0000E94000086CF163009F04DCF70CFE8E6A7
:100AF000F1E01382128288EE93E0A0E0B0E08483FC
:100B00009583A683B78384E291E09183808385EC0B
:100B100090E09587848784EC90E09787868780ECC7
:100B200090E0918B808B81EC90E0938B828B82ECB8
:100B300090E0958B848B86EC90E0978B868B118E62
:100B4000128E138E148E08950E94B8050C94A00680
:100B50000E94990658F00E94920640F029F45F3FE7
:100B600029F00C94890651110C94D4060C948F062C
:100B70000E94B10668F39923B1F3552391F3951BB5
:100B8000550BBB27AA2762177307840738F09F5FAE
:100B90005F4F220F331F441FAA1FA9F335D00E2E1B
:100BA0003AF0E0E832D091505040E695001CCAF788
:100BB0002BD0FE2F29D0660F771F881FBB1F26174B
:100BC00037074807AB07B0E809F0BB0B802DBF0122
:100BD000FF2793585F4F3AF09E3F510578F00C94F1
:100BE00089060C94D4065F3FE4F3983ED4F38695CF
:100BF00077956795B795F7959F5FC9F7880F911D12
:100C00009695879597F90895E1E0660F771F881FFD
:100C1000BB1F621773078407BA0720F0621B730BB0
:100C2000840BBA0BEE1F88F7E09508950E941D060D
:100C30006894B1110C94D40608950E94B90688F006
:100C40009F5798F0B92F9927B751B0F0E1F0660F90
:100C5000771F881F991F1AF0BA95C9F714C0B130D1
:100C600091F00E94D306B1E008950C94D306672F4B
:100C7000782F8827B85F39F0B93FCCF38695779500
:100C80006795B395D9F73EF49095809570956195E9
:100C90007F4F8F4F9F4F0895E89409C097FB3EF414
:100CA00090958095709561957F4F8F4F9F4F9923B9
:100CB000A9F0F92F96E9BB279395F6958795779537
:100CC0006795B795F111F8CFFAF4BB0F11F460FFF7
:100CD0001BC06F5F7F4F8F4F9F4F16C0882311F04F
:100CE00096E911C0772321F09EE8872F762F05C063
:100CF000662371F096E8862F70E060E02AF09A95FE
:100D0000660F771F881FDAF7880F9695879597F9F2
:100D1000089597F99F6780E870E060E008959FEF7D
:100D200080EC089500240A94161617061806090682
:100D3000089500240A941216130614060506089551
:100D4000092E0394000C11F4882352F0BB0F40F4D9
:100D5000BF2B11F460FF04C06F5F7F4F8F4F9F4F19
:100D6000089557FD9058440F551F59F05F3F71F09B
:100D70004795880F97FB991F61F09F3F79F0879502
:100D80000895121613061406551FF2CF4695F1DF8B
:100D900008C0161617061806991FF1CF869571051B
:100DA000610508940895E894BB2766277727CB014F
:100DB00097F90895A1E21A2EAA1BBB1BFD010DC0D5
:100DC000AA1FBB1FEE1FFF1FA217B307E407F507FB
:100DD00020F0A21BB30BE40BF50B661F771F881FD7
:100DE000991F1A9469F760957095809590959B016D
:100DF000AC01BD01CF010895EE0FFF1F0590F491E6
:100E0000E02D0994FB01DC0102C001900D924150DC
:100E10005040D8F70895F894FFCF0B1E0000010052
:100E20000800400000010004050D0D0E13151619F1
:100E30001A1C232526292A2C323400000000B40174
:100E400014014101010272015001640150574D3AF1
:020E5000200080
:107E0000112484B714BE81FFF0D085E080938100F7
:107E100082E08093C00088E18093C10086E0809377
:107E2000C20080E18093C4008EE0C9D0259A86E02C
:107E300020E33CEF91E0309385002093840096BBD3
:107E4000B09BFECF1D9AA8958150A9F7CC24DD24C4
:107E500088248394B5E0AB2EA1E19A2EF3E0BF2EE7
:107E6000A2D0813461F49FD0082FAFD0023811F036
:107E7000013811F484E001C083E08DD089C08234E0
:107E800011F484E103C0853419F485E0A6D080C0E4
:107E9000853579F488D0E82EFF2485D0082F10E0AE
:107EA000102F00270E291F29000F111F8ED06801E7
:107EB0006FC0863521F484E090D080E0DECF843638
:107EC00009F040C070D06FD0082F6DD080E0C81688
:107ED00080E7D80618F4F601B7BEE895C0E0D1E017
:107EE00062D089930C17E1F7F0E0CF16F0E7DF06D8
:107EF00018F0F601B7BEE89568D007B600FCFDCFD4
:107F0000A601A0E0B1E02C9130E011968C91119780
:107F100090E0982F8827822B932B1296FA010C0160
:107F200087BEE89511244E5F5F4FF1E0A038BF0790
:107F300051F7F601A7BEE89507B600FCFDCF97BE46
:107F4000E89526C08437B1F42ED02DD0F82E2BD052
:107F50003CD0F601EF2C8F010F5F1F4F84911BD097
:107F6000EA94F801C1F70894C11CD11CFA94CF0C13
:107F7000D11C0EC0853739F428D08EE10CD085E9AC
:107F80000AD08FE07ACF813511F488E018D01DD067
:107F900080E101D065CF982F8091C00085FFFCCF94
:107FA0009093C60008958091C00087FFFCCF809118
:107FB000C00084FD01C0A8958091C6000895E0E648
:107FC000F0E098E1908380830895EDDF803219F02E
:107FD00088E0F5DFFFCF84E1DECF1F93182FE3DFCA
:107FE0001150E9F7F2DF1F91089580E0E8DFEE27F6
:047FF000FF270994CA
:027FFE00040479
:00000001FF
